{
  "_format": "hh3-artifact-1",
  "contractName": "SimpleStorage",
  "sourceName": "contracts/SimpleStorage.sol",
  "abi": [
    {
      "inputs": [
        {
          "internalType": "uint256",
          "name": "_initial",
          "type": "uint256"
        }
      ],
      "stateMutability": "nonpayable",
      "type": "constructor"
    },
    {
      "anonymous": false,
      "inputs": [
        {
          "indexed": true,
          "internalType": "address",
          "name": "by",
          "type": "address"
        },
        {
          "indexed": false,
          "internalType": "uint256",
          "name": "newValue",
          "type": "uint256"
        },
        {
          "indexed": false,
          "internalType": "uint256",
          "name": "blockNumber",
          "type": "uint256"
        }
      ],
      "name": "ValueSet",
      "type": "event"
    },
    {
      "inputs": [],
      "name": "get",
      "outputs": [
        {
          "internalType": "uint256",
          "name": "",
          "type": "uint256"
        }
      ],
      "stateMutability": "view",
      "type": "function"
    },
    {
      "inputs": [],
      "name": "lastSetter",
      "outputs": [
        {
          "internalType": "address",
          "name": "",
          "type": "address"
        }
      ],
      "stateMutability": "view",
      "type": "function"
    },
    {
      "inputs": [
        {
          "internalType": "uint256",
          "name": "_value",
          "type": "uint256"
        }
      ],
      "name": "set",
      "outputs": [],
      "stateMutability": "nonpayable",
      "type": "function"
    },
    {
      "inputs": [],
      "name": "value",
      "outputs": [
        {
          "internalType": "uint256",
          "name": "",
          "type": "uint256"
        }
      ],
      "stateMutability": "view",
      "type": "function"
    }
  ],
  "bytecode": "0x6080604052348015600e575f5ffd5b506040516101b73803806101b7833981016040819052602b916043565b5f55600180546001600160a01b031916331790556059565b5f602082840312156052575f5ffd5b5051919050565b610151806100665f395ff3fe608060405234801561000f575f5ffd5b506004361061004a575f3560e01c80633fa4f2451461004e57806360fe47b1146100695780636d4ce63c1461007e578063ecb0292d14610085575b5f5ffd5b6100565f5481565b6040519081526020015b60405180910390f35b61007c610077366004610104565b6100b0565b005b5f54610056565b600154610098906001600160a01b031681565b6040516001600160a01b039091168152602001610060565b5f819055600180546001600160a01b03191633908117909155604080518381524360208201527fc0e9036d619701c94569e1462d8120ef4a6d2b15a70d27cc942fd29ae2cc0e59910160405180910390a250565b5f60208284031215610114575f5ffd5b503591905056fea26469706673582212202426700106b13dead9f6efc61f997694eb963c5e43446db6cdc20432ad02e09a64736f6c634300081c0033",
  "linkReferences": {},
  "deployedLinkReferences": {},
  "immutableReferences": {},
  "inputSourceName": "project/contracts/SimpleStorage.sol",
  "buildInfoId": "solc-0_8_28-5880c6a5d4abcaf3184443d6b935f5c39e3c61db"
}